{
  "address": "0x714337d9Fd96A06bDf65552B084f2054277ab3AB",
  "abi": [
    {
      "inputs": [
        {
          "internalType": "contract IVotes",
          "name": "_token",
          "type": "address"
        },
        {
          "internalType": "uint256",
          "name": "_initialVotingPeriod",
          "type": "uint256"
        }
      ],
      "stateMutability": "nonpayable",
      "type": "constructor"
    },
    {
      "anonymous": false,
      "inputs": [
        {
          "indexed": false,
          "internalType": "uint256",
          "name": "proposalId",
          "type": "uint256"
        }
      ],
      "name": "ProposalCanceled",
      "type": "event"
    },
    {
      "anonymous": false,
      "inputs": [
        {
          "indexed": false,
          "internalType": "uint256",
          "name": "proposalId",
          "type": "uint256"
        },
        {
          "indexed": false,
          "internalType": "address",
          "name": "proposer",
          "type": "address"
        },
        {
          "indexed": false,
          "internalType": "address[]",
          "name": "targets",
          "type": "address[]"
        },
        {
          "indexed": false,
          "internalType": "uint256[]",
          "name": "values",
          "type": "uint256[]"
        },
        {
          "indexed": false,
          "internalType": "string[]",
          "name": "signatures",
          "type": "string[]"
        },
        {
          "indexed": false,
          "internalType": "bytes[]",
          "name": "calldatas",
          "type": "bytes[]"
        },
        {
          "indexed": false,
          "internalType": "uint256",
          "name": "startBlock",
          "type": "uint256"
        },
        {
          "indexed": false,
          "internalType": "uint256",
          "name": "endBlock",
          "type": "uint256"
        },
        {
          "indexed": false,
          "internalType": "string",
          "name": "description",
          "type": "string"
        }
      ],
      "name": "ProposalCreated",
      "type": "event"
    },
    {
      "anonymous": false,
      "inputs": [
        {
          "indexed": false,
          "internalType": "uint256",
          "name": "proposalId",
          "type": "uint256"
        }
      ],
      "name": "ProposalExecuted",
      "type": "event"
    },
    {
      "anonymous": false,
      "inputs": [
        {
          "indexed": false,
          "internalType": "uint256",
          "name": "oldProposalThreshold",
          "type": "uint256"
        },
        {
          "indexed": false,
          "internalType": "uint256",
          "name": "newProposalThreshold",
          "type": "uint256"
        }
      ],
      "name": "ProposalThresholdSet",
      "type": "event"
    },
    {
      "anonymous": false,
      "inputs": [
        {
          "indexed": false,
          "internalType": "uint256",
          "name": "oldQuorumNumerator",
          "type": "uint256"
        },
        {
          "indexed": false,
          "internalType": "uint256",
          "name": "newQuorumNumerator",
          "type": "uint256"
        }
      ],
      "name": "QuorumNumeratorUpdated",
      "type": "event"
    },
    {
      "anonymous": false,
      "inputs": [
        {
          "indexed": true,
          "internalType": "address",
          "name": "voter",
          "type": "address"
        },
        {
          "indexed": false,
          "internalType": "uint256",
          "name": "proposalId",
          "type": "uint256"
        },
        {
          "indexed": false,
          "internalType": "uint8",
          "name": "support",
          "type": "uint8"
        },
        {
          "indexed": false,
          "internalType": "uint256",
          "name": "weight",
          "type": "uint256"
        },
        {
          "indexed": false,
          "internalType": "string",
          "name": "reason",
          "type": "string"
        }
      ],
      "name": "VoteCast",
      "type": "event"
    },
    {
      "anonymous": false,
      "inputs": [
        {
          "indexed": false,
          "internalType": "uint256",
          "name": "oldVotingDelay",
          "type": "uint256"
        },
        {
          "indexed": false,
          "internalType": "uint256",
          "name": "newVotingDelay",
          "type": "uint256"
        }
      ],
      "name": "VotingDelaySet",
      "type": "event"
    },
    {
      "anonymous": false,
      "inputs": [
        {
          "indexed": false,
          "internalType": "uint256",
          "name": "oldVotingPeriod",
          "type": "uint256"
        },
        {
          "indexed": false,
          "internalType": "uint256",
          "name": "newVotingPeriod",
          "type": "uint256"
        }
      ],
      "name": "VotingPeriodSet",
      "type": "event"
    },
    {
      "inputs": [],
      "name": "BALLOT_TYPEHASH",
      "outputs": [
        {
          "internalType": "bytes32",
          "name": "",
          "type": "bytes32"
        }
      ],
      "stateMutability": "view",
      "type": "function"
    },
    {
      "inputs": [],
      "name": "COUNTING_MODE",
      "outputs": [
        {
          "internalType": "string",
          "name": "",
          "type": "string"
        }
      ],
      "stateMutability": "pure",
      "type": "function"
    },
    {
      "inputs": [
        {
          "internalType": "uint256",
          "name": "proposalId",
          "type": "uint256"
        },
        {
          "internalType": "uint8",
          "name": "support",
          "type": "uint8"
        }
      ],
      "name": "castVote",
      "outputs": [
        {
          "internalType": "uint256",
          "name": "",
          "type": "uint256"
        }
      ],
      "stateMutability": "nonpayable",
      "type": "function"
    },
    {
      "inputs": [
        {
          "internalType": "uint256",
          "name": "proposalId",
          "type": "uint256"
        },
        {
          "internalType": "uint8",
          "name": "support",
          "type": "uint8"
        },
        {
          "internalType": "uint8",
          "name": "v",
          "type": "uint8"
        },
        {
          "internalType": "bytes32",
          "name": "r",
          "type": "bytes32"
        },
        {
          "internalType": "bytes32",
          "name": "s",
          "type": "bytes32"
        }
      ],
      "name": "castVoteBySig",
      "outputs": [
        {
          "internalType": "uint256",
          "name": "",
          "type": "uint256"
        }
      ],
      "stateMutability": "nonpayable",
      "type": "function"
    },
    {
      "inputs": [
        {
          "internalType": "uint256",
          "name": "proposalId",
          "type": "uint256"
        },
        {
          "internalType": "uint8",
          "name": "support",
          "type": "uint8"
        },
        {
          "internalType": "string",
          "name": "reason",
          "type": "string"
        }
      ],
      "name": "castVoteWithReason",
      "outputs": [
        {
          "internalType": "uint256",
          "name": "",
          "type": "uint256"
        }
      ],
      "stateMutability": "nonpayable",
      "type": "function"
    },
    {
      "inputs": [
        {
          "internalType": "address[]",
          "name": "targets",
          "type": "address[]"
        },
        {
          "internalType": "uint256[]",
          "name": "values",
          "type": "uint256[]"
        },
        {
          "internalType": "bytes[]",
          "name": "calldatas",
          "type": "bytes[]"
        },
        {
          "internalType": "bytes32",
          "name": "descriptionHash",
          "type": "bytes32"
        }
      ],
      "name": "execute",
      "outputs": [
        {
          "internalType": "uint256",
          "name": "",
          "type": "uint256"
        }
      ],
      "stateMutability": "payable",
      "type": "function"
    },
    {
      "inputs": [
        {
          "internalType": "address",
          "name": "account",
          "type": "address"
        },
        {
          "internalType": "uint256",
          "name": "blockNumber",
          "type": "uint256"
        }
      ],
      "name": "getVotes",
      "outputs": [
        {
          "internalType": "uint256",
          "name": "",
          "type": "uint256"
        }
      ],
      "stateMutability": "view",
      "type": "function"
    },
    {
      "inputs": [
        {
          "internalType": "uint256",
          "name": "proposalId",
          "type": "uint256"
        },
        {
          "internalType": "address",
          "name": "account",
          "type": "address"
        }
      ],
      "name": "hasVoted",
      "outputs": [
        {
          "internalType": "bool",
          "name": "",
          "type": "bool"
        }
      ],
      "stateMutability": "view",
      "type": "function"
    },
    {
      "inputs": [
        {
          "internalType": "address[]",
          "name": "targets",
          "type": "address[]"
        },
        {
          "internalType": "uint256[]",
          "name": "values",
          "type": "uint256[]"
        },
        {
          "internalType": "bytes[]",
          "name": "calldatas",
          "type": "bytes[]"
        },
        {
          "internalType": "bytes32",
          "name": "descriptionHash",
          "type": "bytes32"
        }
      ],
      "name": "hashProposal",
      "outputs": [
        {
          "internalType": "uint256",
          "name": "",
          "type": "uint256"
        }
      ],
      "stateMutability": "pure",
      "type": "function"
    },
    {
      "inputs": [],
      "name": "name",
      "outputs": [
        {
          "internalType": "string",
          "name": "",
          "type": "string"
        }
      ],
      "stateMutability": "view",
      "type": "function"
    },
    {
      "inputs": [
        {
          "internalType": "uint256",
          "name": "proposalId",
          "type": "uint256"
        }
      ],
      "name": "proposalDeadline",
      "outputs": [
        {
          "internalType": "uint256",
          "name": "",
          "type": "uint256"
        }
      ],
      "stateMutability": "view",
      "type": "function"
    },
    {
      "inputs": [
        {
          "internalType": "uint256",
          "name": "proposalId",
          "type": "uint256"
        }
      ],
      "name": "proposalSnapshot",
      "outputs": [
        {
          "internalType": "uint256",
          "name": "",
          "type": "uint256"
        }
      ],
      "stateMutability": "view",
      "type": "function"
    },
    {
      "inputs": [],
      "name": "proposalThreshold",
      "outputs": [
        {
          "internalType": "uint256",
          "name": "",
          "type": "uint256"
        }
      ],
      "stateMutability": "view",
      "type": "function"
    },
    {
      "inputs": [
        {
          "internalType": "uint256",
          "name": "proposalId",
          "type": "uint256"
        }
      ],
      "name": "proposalVotes",
      "outputs": [
        {
          "internalType": "uint256",
          "name": "againstVotes",
          "type": "uint256"
        },
        {
          "internalType": "uint256",
          "name": "forVotes",
          "type": "uint256"
        },
        {
          "internalType": "uint256",
          "name": "abstainVotes",
          "type": "uint256"
        }
      ],
      "stateMutability": "view",
      "type": "function"
    },
    {
      "inputs": [
        {
          "internalType": "address[]",
          "name": "targets",
          "type": "address[]"
        },
        {
          "internalType": "uint256[]",
          "name": "values",
          "type": "uint256[]"
        },
        {
          "internalType": "bytes[]",
          "name": "calldatas",
          "type": "bytes[]"
        },
        {
          "internalType": "string",
          "name": "description",
          "type": "string"
        }
      ],
      "name": "propose",
      "outputs": [
        {
          "internalType": "uint256",
          "name": "",
          "type": "uint256"
        }
      ],
      "stateMutability": "nonpayable",
      "type": "function"
    },
    {
      "inputs": [
        {
          "internalType": "uint256",
          "name": "blockNumber",
          "type": "uint256"
        }
      ],
      "name": "quorum",
      "outputs": [
        {
          "internalType": "uint256",
          "name": "",
          "type": "uint256"
        }
      ],
      "stateMutability": "view",
      "type": "function"
    },
    {
      "inputs": [],
      "name": "quorumDenominator",
      "outputs": [
        {
          "internalType": "uint256",
          "name": "",
          "type": "uint256"
        }
      ],
      "stateMutability": "view",
      "type": "function"
    },
    {
      "inputs": [],
      "name": "quorumNumerator",
      "outputs": [
        {
          "internalType": "uint256",
          "name": "",
          "type": "uint256"
        }
      ],
      "stateMutability": "view",
      "type": "function"
    },
    {
      "inputs": [
        {
          "internalType": "address",
          "name": "target",
          "type": "address"
        },
        {
          "internalType": "uint256",
          "name": "value",
          "type": "uint256"
        },
        {
          "internalType": "bytes",
          "name": "data",
          "type": "bytes"
        }
      ],
      "name": "relay",
      "outputs": [],
      "stateMutability": "nonpayable",
      "type": "function"
    },
    {
      "inputs": [
        {
          "internalType": "uint256",
          "name": "newProposalThreshold",
          "type": "uint256"
        }
      ],
      "name": "setProposalThreshold",
      "outputs": [],
      "stateMutability": "nonpayable",
      "type": "function"
    },
    {
      "inputs": [
        {
          "internalType": "uint256",
          "name": "newVotingDelay",
          "type": "uint256"
        }
      ],
      "name": "setVotingDelay",
      "outputs": [],
      "stateMutability": "nonpayable",
      "type": "function"
    },
    {
      "inputs": [
        {
          "internalType": "uint256",
          "name": "newVotingPeriod",
          "type": "uint256"
        }
      ],
      "name": "setVotingPeriod",
      "outputs": [],
      "stateMutability": "nonpayable",
      "type": "function"
    },
    {
      "inputs": [
        {
          "internalType": "uint256",
          "name": "proposalId",
          "type": "uint256"
        }
      ],
      "name": "state",
      "outputs": [
        {
          "internalType": "enum IGovernor.ProposalState",
          "name": "",
          "type": "uint8"
        }
      ],
      "stateMutability": "view",
      "type": "function"
    },
    {
      "inputs": [
        {
          "internalType": "bytes4",
          "name": "interfaceId",
          "type": "bytes4"
        }
      ],
      "name": "supportsInterface",
      "outputs": [
        {
          "internalType": "bool",
          "name": "",
          "type": "bool"
        }
      ],
      "stateMutability": "view",
      "type": "function"
    },
    {
      "inputs": [],
      "name": "token",
      "outputs": [
        {
          "internalType": "contract IVotes",
          "name": "",
          "type": "address"
        }
      ],
      "stateMutability": "view",
      "type": "function"
    },
    {
      "inputs": [
        {
          "internalType": "uint256",
          "name": "newQuorumNumerator",
          "type": "uint256"
        }
      ],
      "name": "updateQuorumNumerator",
      "outputs": [],
      "stateMutability": "nonpayable",
      "type": "function"
    },
    {
      "inputs": [],
      "name": "version",
      "outputs": [
        {
          "internalType": "string",
          "name": "",
          "type": "string"
        }
      ],
      "stateMutability": "view",
      "type": "function"
    },
    {
      "inputs": [],
      "name": "votingDelay",
      "outputs": [
        {
          "internalType": "uint256",
          "name": "",
          "type": "uint256"
        }
      ],
      "stateMutability": "view",
      "type": "function"
    },
    {
      "inputs": [],
      "name": "votingPeriod",
      "outputs": [
        {
          "internalType": "uint256",
          "name": "",
          "type": "uint256"
        }
      ],
      "stateMutability": "view",
      "type": "function"
    },
    {
      "stateMutability": "payable",
      "type": "receive"
    }
  ],
  "transactionHash": "0x452f82893f4f66cf4ed3e93553563db3437f2b5d28bc9d02e6510f9139defd12",
  "args": [
    "0x93727684EF13cC6D3343c106E9d0862Ba9383135",
    1
  ],
  "solcInputHash": "6ff10e60a3cb861c14ecadba16b3088e",
  "bytecode": "0x6101606040523480156200001257600080fd5b5060405162002ccf38038062002ccf83398101604081905262000035916200041c565b600482600183670de0b6b3a76400006040518060400160405280600c81526020016b27b832b723b7bb32b93737b960a11b815250806200007a6200016860201b60201c565b815160208084019190912082518383012060e08290526101008190524660a0818152604080517f8b73c3c69bb8fe3d512ecc4cf759cc79239f7b179b0ffacaa9a75d522b39400f81880181905281830187905260608201869052608082019490945230818401528151808203909301835260c00190528051940193909320919290916080523060c052610120525050825162000120925060009150602084019062000376565b506200012e90508362000183565b6200013982620001c4565b62000144816200026b565b5050506001600160a01b0316610140526200015f81620002ac565b50505062000495565b6040805180820190915260018152603160f81b602082015290565b60025460408051918252602082018390527fc565b045403dc03c2eea82b81a0465edad9e2e7fc4d97e11421c209da93d7a93910160405180910390a1600255565b600081116200022a5760405162461bcd60e51b815260206004820152602760248201527f476f7665726e6f7253657474696e67733a20766f74696e6720706572696f6420604482015266746f6f206c6f7760c81b60648201526084015b60405180910390fd5b60035460408051918252602082018390527f7e3f7f0708a84de9203036abaa450dccc85ad5ff52f78c170f3edb55cf5e8828910160405180910390a1600355565b60045460408051918252602082018390527fccb45da8d5717e6c4544694297c4ba5cf151d455c9bb0ed4fc7a38411bc05461910160405180910390a1600455565b6064811115620003315760405162461bcd60e51b815260206004820152604360248201527f476f7665726e6f72566f74657351756f72756d4672616374696f6e3a2071756f60448201527f72756d4e756d657261746f72206f7665722071756f72756d44656e6f6d696e616064820152623a37b960e91b608482015260a40162000221565b600680549082905560408051828152602081018490527f0553476bf02ef2726e8ce5ced78d63e26e602e4a2257b1f559418e24b4633997910160405180910390a15050565b828054620003849062000458565b90600052602060002090601f016020900481019282620003a85760008555620003f3565b82601f10620003c357805160ff1916838001178555620003f3565b82800160010185558215620003f3579182015b82811115620003f3578251825591602001919060010190620003d6565b506200040192915062000405565b5090565b5b8082111562000401576000815560010162000406565b600080604083850312156200043057600080fd5b82516001600160a01b03811681146200044857600080fd5b6020939093015192949293505050565b600181811c908216806200046d57607f821691505b602082108114156200048f57634e487b7160e01b600052602260045260246000fd5b50919050565b60805160a05160c05160e0516101005161012051610140516127d1620004fe600039600081816105f601528181611583015261164e01526000611798015260006117e7015260006117c20152600061171b015260006117450152600061176f01526127d16000f3fe6080604052600436106101c65760003560e01c80637b3c71d3116100f7578063c59057e411610095578063eb9019d411610064578063eb9019d414610584578063ece40cc1146105a4578063f8ce560a146105c4578063fc0c546a146105e457600080fd5b8063c59057e4146104ca578063dd4e2ba5146104ea578063deaaa7cc14610530578063ea0217cf1461056457600080fd5b8063a7713a70116100d1578063a7713a7014610460578063b58131b014610475578063c01f9e371461048a578063c28bc2fa146104aa57600080fd5b80637b3c71d31461040c5780637d5e81e21461042c57806397c3d3341461044c57600080fd5b80633bccf4fd11610164578063544ffc9c1161013e578063544ffc9c1461034d57806354fd4d50146103a257806356781388146103cc57806370b0f660146103ec57600080fd5b80633bccf4fd146102b65780633e4f49e6146102d6578063438596321461030357600080fd5b806306fdde03116101a057806306fdde031461024c5780632656227d1461026e5780632d63f693146102815780633932abb1146102a157600080fd5b806301ffc9a7146101d457806302a251a31461020957806306f3f9e61461022c57600080fd5b366101cf57005b005b600080fd5b3480156101e057600080fd5b506101f46101ef366004611db7565b610630565b60405190151581526020015b60405180910390f35b34801561021557600080fd5b5061021e610667565b604051908152602001610200565b34801561023857600080fd5b506101cd610247366004611de1565b610677565b34801561025857600080fd5b506102616106d2565b6040516102009190611e56565b61021e61027c3660046120aa565b610764565b34801561028d57600080fd5b5061021e61029c366004611de1565b610871565b3480156102ad57600080fd5b5061021e6108aa565b3480156102c257600080fd5b5061021e6102d136600461214b565b6108b5565b3480156102e257600080fd5b506102f66102f1366004611de1565b610949565b60405161020091906121af565b34801561030f57600080fd5b506101f461031e3660046121d7565b60008281526005602090815260408083206001600160a01b038516845260030190915290205460ff1692915050565b34801561035957600080fd5b50610387610368366004611de1565b6000908152600560205260409020805460018201546002909201549092565b60408051938452602084019290925290820152606001610200565b3480156103ae57600080fd5b506040805180820190915260018152603160f81b6020820152610261565b3480156103d857600080fd5b5061021e6103e7366004612203565b610a55565b3480156103f857600080fd5b506101cd610407366004611de1565b610a7e565b34801561041857600080fd5b5061021e61042736600461226f565b610ad1565b34801561043857600080fd5b5061021e6104473660046122c9565b610b23565b34801561045857600080fd5b50606461021e565b34801561046c57600080fd5b5060065461021e565b34801561048157600080fd5b5061021e610e76565b34801561049657600080fd5b5061021e6104a5366004611de1565b610e81565b3480156104b657600080fd5b506101cd6104c536600461238a565b610eb1565b3480156104d657600080fd5b5061021e6104e53660046120aa565b610f44565b3480156104f657600080fd5b506040805180820190915260208082527f737570706f72743d627261766f2671756f72756d3d666f722c6162737461696e90820152610261565b34801561053c57600080fd5b5061021e7f150214d74d59b7d1e90c73fc22ef3d991dd0a76b046543d4d80ab92d2a50328f81565b34801561057057600080fd5b506101cd61057f366004611de1565b610f7e565b34801561059057600080fd5b5061021e61059f3660046123cc565b610fd1565b3480156105b057600080fd5b506101cd6105bf366004611de1565b610fe4565b3480156105d057600080fd5b5061021e6105df366004611de1565b611037565b3480156105f057600080fd5b506106187f000000000000000000000000000000000000000000000000000000000000000081565b6040516001600160a01b039091168152602001610200565b60006001600160e01b0319821663bf26d89760e01b148061066157506301ffc9a760e01b6001600160e01b03198316145b92915050565b600061067260035490565b905090565b3330146106c65760405162461bcd60e51b8152602060048201526018602482015277476f7665726e6f723a206f6e6c79476f7665726e616e636560401b60448201526064015b60405180910390fd5b6106cf81611042565b50565b6060600080546106e1906123f6565b80601f016020809104026020016040519081016040528092919081815260200182805461070d906123f6565b801561075a5780601f1061072f5761010080835404028352916020019161075a565b820191906000526020600020905b81548152906001019060200180831161073d57829003601f168201915b5050505050905090565b60008061077386868686610f44565b9050600061078082610949565b9050600481600781111561079657610796612199565b14806107b3575060058160078111156107b1576107b1612199565b145b6108095760405162461bcd60e51b815260206004820152602160248201527f476f7665726e6f723a2070726f706f73616c206e6f74207375636365737366756044820152601b60fa1b60648201526084016106bd565b600082815260016020818152604092839020600201805460ff191690921790915590518381527f712ae1383f79ac853f8d882153778e0260ef8f03b504e2866e0593e04d2b291f910160405180910390a1610867828888888861110a565b5095945050505050565b600081815260016020908152604080832081519283019091525467ffffffffffffffff16908190525b67ffffffffffffffff1692915050565b600061067260025490565b604080517f150214d74d59b7d1e90c73fc22ef3d991dd0a76b046543d4d80ab92d2a50328f602082015290810186905260ff851660608201526000908190610921906109199060800160405160208183030381529060405280519060200120611209565b868686611257565b905061093e87828860405180602001604052806000815250611275565b979650505050505050565b6000818152600160205260408120600281015460ff161561096d5750600792915050565b6002810154610100900460ff16156109885750600292915050565b600061099384610871565b9050806109e25760405162461bcd60e51b815260206004820152601d60248201527f476f7665726e6f723a20756e6b6e6f776e2070726f706f73616c20696400000060448201526064016106bd565b4381106109f3575060009392505050565b60006109fe85610e81565b9050438110610a1257506001949350505050565b610a1b85611381565b8015610a3a575060008581526005602052604090208054600190910154115b15610a4a57506004949350505050565b506003949350505050565b600080339050610a7684828560405180602001604052806000815250611275565b949350505050565b333014610ac85760405162461bcd60e51b8152602060048201526018602482015277476f7665726e6f723a206f6e6c79476f7665726e616e636560401b60448201526064016106bd565b6106cf816113b8565b600080339050610b1986828787878080601f01602080910402602001604051908101604052809392919081815260200183838082843760009201919091525061127592505050565b9695505050505050565b6000610b2d610e76565b610b3c3361059f600143612447565b1015610bbc5760405162461bcd60e51b815260206004820152604360248201527f476f7665726e6f72436f6d7061746962696c697479427261766f3a2070726f7060448201527f6f73657220766f7465732062656c6f772070726f706f73616c207468726573686064820152621bdb1960ea1b608482015260a4016106bd565b6000610bd18686868680519060200120610f44565b90508451865114610c2e5760405162461bcd60e51b815260206004820152602160248201527f476f7665726e6f723a20696e76616c69642070726f706f73616c206c656e67746044820152600d60fb1b60648201526084016106bd565b8351865114610c895760405162461bcd60e51b815260206004820152602160248201527f476f7665726e6f723a20696e76616c69642070726f706f73616c206c656e67746044820152600d60fb1b60648201526084016106bd565b6000865111610cda5760405162461bcd60e51b815260206004820152601860248201527f476f7665726e6f723a20656d7074792070726f706f73616c000000000000000060448201526064016106bd565b6000818152600160209081526040918290208251918201909252815467ffffffffffffffff169081905215610d5b5760405162461bcd60e51b815260206004820152602160248201527f476f7665726e6f723a2070726f706f73616c20616c72656164792065786973746044820152607360f81b60648201526084016106bd565b6000610d6d610d686108aa565b6113f9565b610d76436113f9565b610d80919061245e565b90506000610d8f610d68610667565b610d99908361245e565b835467ffffffffffffffff191667ffffffffffffffff8416178455905060018301805467ffffffffffffffff191667ffffffffffffffff83161790557f7d84a6263ae0d98d3329bd7b46bb4e8d6f98cd35a7adb45c274c8b7fd5ebd5e084338b8b8d5167ffffffffffffffff811115610e1457610e14611e69565b604051908082528060200260200182016040528015610e4757816020015b6060815260200190600190039081610e325790505b508c88888e604051610e6199989796959493929190612550565b60405180910390a15091979650505050505050565b600061067260045490565b600081815260016020818152604080842081519283019091529091015467ffffffffffffffff169081905261089a565b333014610efb5760405162461bcd60e51b8152602060048201526018602482015277476f7665726e6f723a206f6e6c79476f7665726e616e636560401b60448201526064016106bd565b610f3d8483838080601f01602080910402602001604051908101604052809392919081815260200183838082843760009201919091525088925061147d915050565b5050505050565b600084848484604051602001610f5d9493929190612642565b60408051601f19818403018152919052805160209091012095945050505050565b333014610fc85760405162461bcd60e51b8152602060048201526018602482015277476f7665726e6f723a206f6e6c79476f7665726e616e636560401b60448201526064016106bd565b6106cf816114a3565b6000610fdd838361155a565b9392505050565b33301461102e5760405162461bcd60e51b8152602060048201526018602482015277476f7665726e6f723a206f6e6c79476f7665726e616e636560401b60448201526064016106bd565b6106cf816115f0565b600061066182611631565b60648111156110c55760405162461bcd60e51b815260206004820152604360248201527f476f7665726e6f72566f74657351756f72756d4672616374696f6e3a2071756f60448201527f72756d4e756d657261746f72206f7665722071756f72756d44656e6f6d696e616064820152623a37b960e91b608482015260a4016106bd565b600680549082905560408051828152602081018490527f0553476bf02ef2726e8ce5ced78d63e26e602e4a2257b1f559418e24b4633997910160405180910390a15050565b600060405180606001604052806027815260200161277560279139905060005b8551811015611200576000808783815181106111485761114861268d565b60200260200101516001600160a01b031687848151811061116b5761116b61268d565b60200260200101518785815181106111855761118561268d565b602002602001015160405161119a91906126a3565b60006040518083038185875af1925050503d80600081146111d7576040519150601f19603f3d011682016040523d82523d6000602084013e6111dc565b606091505b50915091506111ec8282866116d5565b505050806111f9906126bf565b905061112a565b50505050505050565b600061066161121661170e565b8360405161190160f01b6020820152602281018390526042810182905260009060620160405160208183030381529060405280519060200120905092915050565b600080600061126887878787611835565b9150915061086781611922565b600084815260016020819052604082209061128f87610949565b60078111156112a0576112a0612199565b146112f95760405162461bcd60e51b815260206004820152602360248201527f476f7665726e6f723a20766f7465206e6f742063757272656e746c792061637460448201526269766560e81b60648201526084016106bd565b6040805160208101909152815467ffffffffffffffff1690819052600090611322908790610fd1565b905061133087878784611add565b856001600160a01b03167fb8e138887d0aa13bab447e82de9d5c1777041ecd21ca36ba824ff1e6c07ddda48887848860405161136f94939291906126da565b60405180910390a29695505050505050565b6000818152600560205260408120600281015460018201546113a39190612702565b6113af6105df85610871565b11159392505050565b60025460408051918252602082018390527fc565b045403dc03c2eea82b81a0465edad9e2e7fc4d97e11421c209da93d7a93910160405180910390a1600255565b600067ffffffffffffffff8211156114795760405162461bcd60e51b815260206004820152602660248201527f53616665436173743a2076616c756520646f65736e27742066697420696e203660448201527f342062697473000000000000000000000000000000000000000000000000000060648201526084016106bd565b5090565b6060610a7684848460405180606001604052806029815260200161279c60299139611c7a565b600081116115195760405162461bcd60e51b815260206004820152602760248201527f476f7665726e6f7253657474696e67733a20766f74696e6720706572696f642060448201527f746f6f206c6f770000000000000000000000000000000000000000000000000060648201526084016106bd565b60035460408051918252602082018390527f7e3f7f0708a84de9203036abaa450dccc85ad5ff52f78c170f3edb55cf5e8828910160405180910390a1600355565b604051630748d63560e31b81526001600160a01b038381166004830152602482018390526000917f000000000000000000000000000000000000000000000000000000000000000090911690633a46b1a890604401602060405180830381865afa1580156115cc573d6000803e3d6000fd5b505050506040513d601f19601f82011682018060405250810190610fdd919061271a565b60045460408051918252602082018390527fccb45da8d5717e6c4544694297c4ba5cf151d455c9bb0ed4fc7a38411bc05461910160405180910390a1600455565b60006064600654604051632394e7a360e21b8152600481018590527f00000000000000000000000000000000000000000000000000000000000000006001600160a01b031690638e539e8c90602401602060405180830381865afa15801561169d573d6000803e3d6000fd5b505050506040513d601f19601f820116820180604052508101906116c1919061271a565b6116cb9190612733565b6106619190612752565b606083156116e4575081610fdd565b8251156116f45782518084602001fd5b8160405162461bcd60e51b81526004016106bd9190611e56565b6000306001600160a01b037f00000000000000000000000000000000000000000000000000000000000000001614801561176757507f000000000000000000000000000000000000000000000000000000000000000046145b1561179157507f000000000000000000000000000000000000000000000000000000000000000090565b50604080517f00000000000000000000000000000000000000000000000000000000000000006020808301919091527f0000000000000000000000000000000000000000000000000000000000000000828401527f000000000000000000000000000000000000000000000000000000000000000060608301524660808301523060a0808401919091528351808403909101815260c0909201909252805191012090565b6000807f7fffffffffffffffffffffffffffffff5d576e7357a4501ddfe92f46681b20a083111561186c5750600090506003611919565b8460ff16601b1415801561188457508460ff16601c14155b156118955750600090506004611919565b6040805160008082526020820180845289905260ff881692820192909252606081018690526080810185905260019060a0016020604051602081039080840390855afa1580156118e9573d6000803e3d6000fd5b5050604051601f1901519150506001600160a01b03811661191257600060019250925050611919565b9150600090505b94509492505050565b600081600481111561193657611936612199565b141561193f5750565b600181600481111561195357611953612199565b14156119a15760405162461bcd60e51b815260206004820152601860248201527f45434453413a20696e76616c6964207369676e6174757265000000000000000060448201526064016106bd565b60028160048111156119b5576119b5612199565b1415611a035760405162461bcd60e51b815260206004820152601f60248201527f45434453413a20696e76616c6964207369676e6174757265206c656e6774680060448201526064016106bd565b6003816004811115611a1757611a17612199565b1415611a705760405162461bcd60e51b815260206004820152602260248201527f45434453413a20696e76616c6964207369676e6174757265202773272076616c604482015261756560f01b60648201526084016106bd565b6004816004811115611a8457611a84612199565b14156106cf5760405162461bcd60e51b815260206004820152602260248201527f45434453413a20696e76616c6964207369676e6174757265202776272076616c604482015261756560f01b60648201526084016106bd565b60008481526005602090815260408083206001600160a01b0387168452600381019092529091205460ff1615611b7b5760405162461bcd60e51b815260206004820152602760248201527f476f7665726e6f72566f74696e6753696d706c653a20766f746520616c72656160448201527f647920636173740000000000000000000000000000000000000000000000000060648201526084016106bd565b6001600160a01b03841660009081526003820160205260408120805460ff1916600117905560ff168360ff161415611bcc5781816000016000828254611bc19190612702565b90915550610f3d9050565b60ff831660011415611bec5781816001016000828254611bc19190612702565b60ff831660021415611c0c5781816002016000828254611bc19190612702565b60405162461bcd60e51b815260206004820152603560248201527f476f7665726e6f72566f74696e6753696d706c653a20696e76616c696420766160448201527f6c756520666f7220656e756d20566f746554797065000000000000000000000060648201526084016106bd565b606082471015611cf25760405162461bcd60e51b815260206004820152602660248201527f416464726573733a20696e73756666696369656e742062616c616e636520666f60448201527f722063616c6c000000000000000000000000000000000000000000000000000060648201526084016106bd565b6001600160a01b0385163b611d495760405162461bcd60e51b815260206004820152601d60248201527f416464726573733a2063616c6c20746f206e6f6e2d636f6e747261637400000060448201526064016106bd565b600080866001600160a01b03168587604051611d6591906126a3565b60006040518083038185875af1925050503d8060008114611da2576040519150601f19603f3d011682016040523d82523d6000602084013e611da7565b606091505b509150915061093e8282866116d5565b600060208284031215611dc957600080fd5b81356001600160e01b031981168114610fdd57600080fd5b600060208284031215611df357600080fd5b5035919050565b60005b83811015611e15578181015183820152602001611dfd565b83811115611e24576000848401525b50505050565b60008151808452611e42816020860160208601611dfa565b601f01601f19169290920160200192915050565b602081526000610fdd6020830184611e2a565b634e487b7160e01b600052604160045260246000fd5b604051601f8201601f1916810167ffffffffffffffff81118282101715611ea857611ea8611e69565b604052919050565b600067ffffffffffffffff821115611eca57611eca611e69565b5060051b60200190565b80356001600160a01b0381168114611eeb57600080fd5b919050565b600082601f830112611f0157600080fd5b81356020611f16611f1183611eb0565b611e7f565b82815260059290921b84018101918181019086841115611f3557600080fd5b8286015b84811015611f5757611f4a81611ed4565b8352918301918301611f39565b509695505050505050565b600082601f830112611f7357600080fd5b81356020611f83611f1183611eb0565b82815260059290921b84018101918181019086841115611fa257600080fd5b8286015b84811015611f575780358352918301918301611fa6565b600067ffffffffffffffff831115611fd757611fd7611e69565b611fea601f8401601f1916602001611e7f565b9050828152838383011115611ffe57600080fd5b828260208301376000602084830101529392505050565b600082601f83011261202657600080fd5b81356020612036611f1183611eb0565b82815260059290921b8401810191818101908684111561205557600080fd5b8286015b84811015611f5757803567ffffffffffffffff8111156120795760008081fd5b8701603f8101891361208b5760008081fd5b61209c898683013560408401611fbd565b845250918301918301612059565b600080600080608085870312156120c057600080fd5b843567ffffffffffffffff808211156120d857600080fd5b6120e488838901611ef0565b955060208701359150808211156120fa57600080fd5b61210688838901611f62565b9450604087013591508082111561211c57600080fd5b5061212987828801612015565b949793965093946060013593505050565b803560ff81168114611eeb57600080fd5b600080600080600060a0868803121561216357600080fd5b853594506121736020870161213a565b93506121816040870161213a565b94979396509394606081013594506080013592915050565b634e487b7160e01b600052602160045260246000fd5b60208101600883106121d157634e487b7160e01b600052602160045260246000fd5b91905290565b600080604083850312156121ea57600080fd5b823591506121fa60208401611ed4565b90509250929050565b6000806040838503121561221657600080fd5b823591506121fa6020840161213a565b60008083601f84011261223857600080fd5b50813567ffffffffffffffff81111561225057600080fd5b60208301915083602082850101111561226857600080fd5b9250929050565b6000806000806060858703121561228557600080fd5b843593506122956020860161213a565b9250604085013567ffffffffffffffff8111156122b157600080fd5b6122bd87828801612226565b95989497509550505050565b600080600080608085870312156122df57600080fd5b843567ffffffffffffffff808211156122f757600080fd5b61230388838901611ef0565b9550602087013591508082111561231957600080fd5b61232588838901611f62565b9450604087013591508082111561233b57600080fd5b61234788838901612015565b9350606087013591508082111561235d57600080fd5b508501601f8101871361236f57600080fd5b61237e87823560208401611fbd565b91505092959194509250565b600080600080606085870312156123a057600080fd5b6123a985611ed4565b935060208501359250604085013567ffffffffffffffff8111156122b157600080fd5b600080604083850312156123df57600080fd5b6123e883611ed4565b946020939093013593505050565b600181811c9082168061240a57607f821691505b6020821081141561242b57634e487b7160e01b600052602260045260246000fd5b50919050565b634e487b7160e01b600052601160045260246000fd5b60008282101561245957612459612431565b500390565b600067ffffffffffffffff80831681851680830382111561248157612481612431565b01949350505050565b600081518084526020808501945080840160005b838110156124c35781516001600160a01b03168752958201959082019060010161249e565b509495945050505050565b600081518084526020808501945080840160005b838110156124c3578151875295820195908201906001016124e2565b6000815180845260208085019450848260051b860182860160005b85811015612543578383038952612531838351611e2a565b98850198925090840190600101612519565b5090979650505050505050565b60006101208b835260206001600160a01b038c168185015281604085015261257a8285018c61248a565b9150838203606085015261258e828b6124ce565b915083820360808501528189518084528284019150828160051b850101838c0160005b838110156125df57601f198784030185526125cd838351611e2a565b948601949250908501906001016125b1565b505086810360a08801526125f3818c6124fe565b94505050505061260f60c084018767ffffffffffffffff169052565b67ffffffffffffffff851660e08401528281036101008401526126328185611e2a565b9c9b505050505050505050505050565b608081526000612655608083018761248a565b828103602084015261266781876124ce565b9050828103604084015261267b81866124fe565b91505082606083015295945050505050565b634e487b7160e01b600052603260045260246000fd5b600082516126b5818460208701611dfa565b9190910192915050565b60006000198214156126d3576126d3612431565b5060010190565b84815260ff84166020820152826040820152608060608201526000610b196080830184611e2a565b6000821982111561271557612715612431565b500190565b60006020828403121561272c57600080fd5b5051919050565b600081600019048311821515161561274d5761274d612431565b500290565b60008261276f57634e487b7160e01b600052601260045260246000fd5b50049056fe476f7665726e6f723a2063616c6c20726576657274656420776974686f7574206d657373616765416464726573733a206c6f772d6c6576656c2063616c6c20776974682076616c7565206661696c6564a164736f6c634300080a000a",
  "devdoc": {
    "kind": "dev",
    "methods": {
      "COUNTING_MODE()": {
        "details": "See {IGovernor-COUNTING_MODE}."
      },
      "castVote(uint256,uint8)": {
        "details": "See {IGovernor-castVote}."
      },
      "castVoteBySig(uint256,uint8,uint8,bytes32,bytes32)": {
        "details": "See {IGovernor-castVoteBySig}."
      },
      "castVoteWithReason(uint256,uint8,string)": {
        "details": "See {IGovernor-castVoteWithReason}."
      },
      "execute(address[],uint256[],bytes[],bytes32)": {
        "details": "See {IGovernor-execute}."
      },
      "hasVoted(uint256,address)": {
        "details": "See {IGovernor-hasVoted}."
      },
      "hashProposal(address[],uint256[],bytes[],bytes32)": {
        "details": "See {IGovernor-hashProposal}. The proposal id is produced by hashing the RLC encoded `targets` array, the `values` array, the `calldatas` array and the descriptionHash (bytes32 which itself is the keccak256 hash of the description string). This proposal id can be produced from the proposal data which is part of the {ProposalCreated} event. It can even be computed in advance, before the proposal is submitted. Note that the chainId and the governor address are not part of the proposal id computation. Consequently, the same proposal (with same operation and same description) will have the same id if submitted on multiple governors accross multiple networks. This also means that in order to execute the same operation twice (on the same governor) the proposer will have to change the description in order to avoid proposal id conflicts."
      },
      "name()": {
        "details": "See {IGovernor-name}."
      },
      "proposalDeadline(uint256)": {
        "details": "See {IGovernor-proposalDeadline}."
      },
      "proposalSnapshot(uint256)": {
        "details": "See {IGovernor-proposalSnapshot}."
      },
      "proposalVotes(uint256)": {
        "details": "Accessor to the internal vote counts."
      },
      "propose(address[],uint256[],bytes[],string)": {
        "details": "See {IGovernor-propose}."
      },
      "quorumDenominator()": {
        "details": "Returns the quorum denominator. Defaults to 100, but may be overridden."
      },
      "quorumNumerator()": {
        "details": "Returns the current quorum numerator. See {quorumDenominator}."
      },
      "relay(address,uint256,bytes)": {
        "details": "Relays a transaction or function call to an arbitrary target. In cases where the governance executor is some contract other than the governor itself, like when using a timelock, this function can be invoked in a governance proposal to recover tokens or Ether that was sent to the governor contract by mistake. Note that if the executor is simply the governor itself, use of `relay` is redundant."
      },
      "setProposalThreshold(uint256)": {
        "details": "Update the proposal threshold. This operation can only be performed through a governance proposal. Emits a {ProposalThresholdSet} event."
      },
      "setVotingDelay(uint256)": {
        "details": "Update the voting delay. This operation can only be performed through a governance proposal. Emits a {VotingDelaySet} event."
      },
      "setVotingPeriod(uint256)": {
        "details": "Update the voting period. This operation can only be performed through a governance proposal. Emits a {VotingPeriodSet} event."
      },
      "state(uint256)": {
        "details": "See {IGovernor-state}."
      },
      "supportsInterface(bytes4)": {
        "details": "See {IERC165-supportsInterface}."
      },
      "updateQuorumNumerator(uint256)": {
        "details": "Changes the quorum numerator. Emits a {QuorumNumeratorUpdated} event. Requirements: - Must be called through a governance proposal. - New numerator must be smaller or equal to the denominator."
      },
      "version()": {
        "details": "See {IGovernor-version}."
      }
    },
    "version": 1
  },
  "userdoc": {
    "kind": "user",
    "methods": {},
    "version": 1
  },
  "storageLayout": {
    "storage": [
      {
        "astId": 43,
        "contract": "contracts/governance/OpenGovernor.sol:OpenGovernor",
        "label": "_name",
        "offset": 0,
        "slot": "0",
        "type": "t_string_storage"
      },
      {
        "astId": 48,
        "contract": "contracts/governance/OpenGovernor.sol:OpenGovernor",
        "label": "_proposals",
        "offset": 0,
        "slot": "1",
        "type": "t_mapping(t_uint256,t_struct(ProposalCore)41_storage)"
      },
      {
        "astId": 1322,
        "contract": "contracts/governance/OpenGovernor.sol:OpenGovernor",
        "label": "_votingDelay",
        "offset": 0,
        "slot": "2",
        "type": "t_uint256"
      },
      {
        "astId": 1324,
        "contract": "contracts/governance/OpenGovernor.sol:OpenGovernor",
        "label": "_votingPeriod",
        "offset": 0,
        "slot": "3",
        "type": "t_uint256"
      },
      {
        "astId": 1326,
        "contract": "contracts/governance/OpenGovernor.sol:OpenGovernor",
        "label": "_proposalThreshold",
        "offset": 0,
        "slot": "4",
        "type": "t_uint256"
      },
      {
        "astId": 1116,
        "contract": "contracts/governance/OpenGovernor.sol:OpenGovernor",
        "label": "_proposalVotes",
        "offset": 0,
        "slot": "5",
        "type": "t_mapping(t_uint256,t_struct(ProposalVote)1111_storage)"
      },
      {
        "astId": 1540,
        "contract": "contracts/governance/OpenGovernor.sol:OpenGovernor",
        "label": "_quorumNumerator",
        "offset": 0,
        "slot": "6",
        "type": "t_uint256"
      }
    ],
    "types": {
      "t_address": {
        "encoding": "inplace",
        "label": "address",
        "numberOfBytes": "20"
      },
      "t_bool": {
        "encoding": "inplace",
        "label": "bool",
        "numberOfBytes": "1"
      },
      "t_mapping(t_address,t_bool)": {
        "encoding": "mapping",
        "key": "t_address",
        "label": "mapping(address => bool)",
        "numberOfBytes": "32",
        "value": "t_bool"
      },
      "t_mapping(t_uint256,t_struct(ProposalCore)41_storage)": {
        "encoding": "mapping",
        "key": "t_uint256",
        "label": "mapping(uint256 => struct Governor.ProposalCore)",
        "numberOfBytes": "32",
        "value": "t_struct(ProposalCore)41_storage"
      },
      "t_mapping(t_uint256,t_struct(ProposalVote)1111_storage)": {
        "encoding": "mapping",
        "key": "t_uint256",
        "label": "mapping(uint256 => struct GovernorCountingSimple.ProposalVote)",
        "numberOfBytes": "32",
        "value": "t_struct(ProposalVote)1111_storage"
      },
      "t_string_storage": {
        "encoding": "bytes",
        "label": "string",
        "numberOfBytes": "32"
      },
      "t_struct(BlockNumber)4182_storage": {
        "encoding": "inplace",
        "label": "struct Timers.BlockNumber",
        "members": [
          {
            "astId": 4181,
            "contract": "contracts/governance/OpenGovernor.sol:OpenGovernor",
            "label": "_deadline",
            "offset": 0,
            "slot": "0",
            "type": "t_uint64"
          }
        ],
        "numberOfBytes": "32"
      },
      "t_struct(ProposalCore)41_storage": {
        "encoding": "inplace",
        "label": "struct Governor.ProposalCore",
        "members": [
          {
            "astId": 33,
            "contract": "contracts/governance/OpenGovernor.sol:OpenGovernor",
            "label": "voteStart",
            "offset": 0,
            "slot": "0",
            "type": "t_struct(BlockNumber)4182_storage"
          },
          {
            "astId": 36,
            "contract": "contracts/governance/OpenGovernor.sol:OpenGovernor",
            "label": "voteEnd",
            "offset": 0,
            "slot": "1",
            "type": "t_struct(BlockNumber)4182_storage"
          },
          {
            "astId": 38,
            "contract": "contracts/governance/OpenGovernor.sol:OpenGovernor",
            "label": "executed",
            "offset": 0,
            "slot": "2",
            "type": "t_bool"
          },
          {
            "astId": 40,
            "contract": "contracts/governance/OpenGovernor.sol:OpenGovernor",
            "label": "canceled",
            "offset": 1,
            "slot": "2",
            "type": "t_bool"
          }
        ],
        "numberOfBytes": "96"
      },
      "t_struct(ProposalVote)1111_storage": {
        "encoding": "inplace",
        "label": "struct GovernorCountingSimple.ProposalVote",
        "members": [
          {
            "astId": 1102,
            "contract": "contracts/governance/OpenGovernor.sol:OpenGovernor",
            "label": "againstVotes",
            "offset": 0,
            "slot": "0",
            "type": "t_uint256"
          },
          {
            "astId": 1104,
            "contract": "contracts/governance/OpenGovernor.sol:OpenGovernor",
            "label": "forVotes",
            "offset": 0,
            "slot": "1",
            "type": "t_uint256"
          },
          {
            "astId": 1106,
            "contract": "contracts/governance/OpenGovernor.sol:OpenGovernor",
            "label": "abstainVotes",
            "offset": 0,
            "slot": "2",
            "type": "t_uint256"
          },
          {
            "astId": 1110,
            "contract": "contracts/governance/OpenGovernor.sol:OpenGovernor",
            "label": "hasVoted",
            "offset": 0,
            "slot": "3",
            "type": "t_mapping(t_address,t_bool)"
          }
        ],
        "numberOfBytes": "128"
      },
      "t_uint256": {
        "encoding": "inplace",
        "label": "uint256",
        "numberOfBytes": "32"
      },
      "t_uint64": {
        "encoding": "inplace",
        "label": "uint64",
        "numberOfBytes": "8"
      }
    }
  }
}