{
  "address": "0x4967104a02a2E8eC6b02D95263f26DDa18F9AB41",
  "abi": [
    {
      "inputs": [],
      "stateMutability": "nonpayable",
      "type": "constructor"
    },
    {
      "anonymous": false,
      "inputs": [
        {
          "indexed": true,
          "internalType": "address",
          "name": "owner",
          "type": "address"
        },
        {
          "indexed": true,
          "internalType": "address",
          "name": "spender",
          "type": "address"
        },
        {
          "indexed": false,
          "internalType": "uint256",
          "name": "value",
          "type": "uint256"
        }
      ],
      "name": "Approval",
      "type": "event"
    },
    {
      "anonymous": false,
      "inputs": [
        {
          "indexed": true,
          "internalType": "uint256",
          "name": "epoch",
          "type": "uint256"
        },
        {
          "indexed": false,
          "internalType": "uint256",
          "name": "rebase",
          "type": "uint256"
        },
        {
          "indexed": false,
          "internalType": "uint256",
          "name": "index",
          "type": "uint256"
        }
      ],
      "name": "LogRebase",
      "type": "event"
    },
    {
      "anonymous": false,
      "inputs": [
        {
          "indexed": false,
          "internalType": "address",
          "name": "stakingContract",
          "type": "address"
        }
      ],
      "name": "LogStakingContractUpdated",
      "type": "event"
    },
    {
      "anonymous": false,
      "inputs": [
        {
          "indexed": true,
          "internalType": "uint256",
          "name": "epoch",
          "type": "uint256"
        },
        {
          "indexed": false,
          "internalType": "uint256",
          "name": "totalSupply",
          "type": "uint256"
        }
      ],
      "name": "LogSupply",
      "type": "event"
    },
    {
      "anonymous": false,
      "inputs": [
        {
          "indexed": true,
          "internalType": "address",
          "name": "from",
          "type": "address"
        },
        {
          "indexed": true,
          "internalType": "address",
          "name": "to",
          "type": "address"
        },
        {
          "indexed": false,
          "internalType": "uint256",
          "name": "value",
          "type": "uint256"
        }
      ],
      "name": "Transfer",
      "type": "event"
    },
    {
      "inputs": [],
      "name": "DOMAIN_SEPARATOR",
      "outputs": [
        {
          "internalType": "bytes32",
          "name": "",
          "type": "bytes32"
        }
      ],
      "stateMutability": "view",
      "type": "function"
    },
    {
      "inputs": [
        {
          "internalType": "address",
          "name": "owner_",
          "type": "address"
        },
        {
          "internalType": "address",
          "name": "spender",
          "type": "address"
        }
      ],
      "name": "allowance",
      "outputs": [
        {
          "internalType": "uint256",
          "name": "",
          "type": "uint256"
        }
      ],
      "stateMutability": "view",
      "type": "function"
    },
    {
      "inputs": [
        {
          "internalType": "address",
          "name": "spender",
          "type": "address"
        },
        {
          "internalType": "uint256",
          "name": "value",
          "type": "uint256"
        }
      ],
      "name": "approve",
      "outputs": [
        {
          "internalType": "bool",
          "name": "",
          "type": "bool"
        }
      ],
      "stateMutability": "nonpayable",
      "type": "function"
    },
    {
      "inputs": [
        {
          "internalType": "uint256",
          "name": "gons",
          "type": "uint256"
        }
      ],
      "name": "balanceForGons",
      "outputs": [
        {
          "internalType": "uint256",
          "name": "",
          "type": "uint256"
        }
      ],
      "stateMutability": "view",
      "type": "function"
    },
    {
      "inputs": [
        {
          "internalType": "address",
          "name": "who",
          "type": "address"
        }
      ],
      "name": "balanceOf",
      "outputs": [
        {
          "internalType": "uint256",
          "name": "",
          "type": "uint256"
        }
      ],
      "stateMutability": "view",
      "type": "function"
    },
    {
      "inputs": [
        {
          "internalType": "uint256",
          "name": "amount",
          "type": "uint256"
        },
        {
          "internalType": "address",
          "name": "debtor",
          "type": "address"
        },
        {
          "internalType": "bool",
          "name": "add",
          "type": "bool"
        }
      ],
      "name": "changeDebt",
      "outputs": [],
      "stateMutability": "nonpayable",
      "type": "function"
    },
    {
      "inputs": [],
      "name": "circulatingSupply",
      "outputs": [
        {
          "internalType": "uint256",
          "name": "",
          "type": "uint256"
        }
      ],
      "stateMutability": "view",
      "type": "function"
    },
    {
      "inputs": [
        {
          "internalType": "address",
          "name": "",
          "type": "address"
        }
      ],
      "name": "debtBalances",
      "outputs": [
        {
          "internalType": "uint256",
          "name": "",
          "type": "uint256"
        }
      ],
      "stateMutability": "view",
      "type": "function"
    },
    {
      "inputs": [],
      "name": "decimals",
      "outputs": [
        {
          "internalType": "uint8",
          "name": "",
          "type": "uint8"
        }
      ],
      "stateMutability": "view",
      "type": "function"
    },
    {
      "inputs": [
        {
          "internalType": "address",
          "name": "spender",
          "type": "address"
        },
        {
          "internalType": "uint256",
          "name": "subtractedValue",
          "type": "uint256"
        }
      ],
      "name": "decreaseAllowance",
      "outputs": [
        {
          "internalType": "bool",
          "name": "",
          "type": "bool"
        }
      ],
      "stateMutability": "nonpayable",
      "type": "function"
    },
    {
      "inputs": [
        {
          "internalType": "uint256",
          "name": "amount",
          "type": "uint256"
        }
      ],
      "name": "fromG",
      "outputs": [
        {
          "internalType": "uint256",
          "name": "",
          "type": "uint256"
        }
      ],
      "stateMutability": "view",
      "type": "function"
    },
    {
      "inputs": [],
      "name": "gOHM",
      "outputs": [
        {
          "internalType": "contract IOpenGOHM",
          "name": "",
          "type": "address"
        }
      ],
      "stateMutability": "view",
      "type": "function"
    },
    {
      "inputs": [
        {
          "internalType": "uint256",
          "name": "amount",
          "type": "uint256"
        }
      ],
      "name": "gonsForBalance",
      "outputs": [
        {
          "internalType": "uint256",
          "name": "",
          "type": "uint256"
        }
      ],
      "stateMutability": "view",
      "type": "function"
    },
    {
      "inputs": [
        {
          "internalType": "address",
          "name": "spender",
          "type": "address"
        },
        {
          "internalType": "uint256",
          "name": "addedValue",
          "type": "uint256"
        }
      ],
      "name": "increaseAllowance",
      "outputs": [
        {
          "internalType": "bool",
          "name": "",
          "type": "bool"
        }
      ],
      "stateMutability": "nonpayable",
      "type": "function"
    },
    {
      "inputs": [],
      "name": "index",
      "outputs": [
        {
          "internalType": "uint256",
          "name": "",
          "type": "uint256"
        }
      ],
      "stateMutability": "view",
      "type": "function"
    },
    {
      "inputs": [
        {
          "internalType": "address",
          "name": "_stakingContract",
          "type": "address"
        },
        {
          "internalType": "address",
          "name": "_treasury",
          "type": "address"
        }
      ],
      "name": "initialize",
      "outputs": [],
      "stateMutability": "nonpayable",
      "type": "function"
    },
    {
      "inputs": [],
      "name": "name",
      "outputs": [
        {
          "internalType": "string",
          "name": "",
          "type": "string"
        }
      ],
      "stateMutability": "view",
      "type": "function"
    },
    {
      "inputs": [
        {
          "internalType": "address",
          "name": "owner",
          "type": "address"
        }
      ],
      "name": "nonces",
      "outputs": [
        {
          "internalType": "uint256",
          "name": "",
          "type": "uint256"
        }
      ],
      "stateMutability": "view",
      "type": "function"
    },
    {
      "inputs": [
        {
          "internalType": "address",
          "name": "owner",
          "type": "address"
        },
        {
          "internalType": "address",
          "name": "spender",
          "type": "address"
        },
        {
          "internalType": "uint256",
          "name": "value",
          "type": "uint256"
        },
        {
          "internalType": "uint256",
          "name": "deadline",
          "type": "uint256"
        },
        {
          "internalType": "uint8",
          "name": "v",
          "type": "uint8"
        },
        {
          "internalType": "bytes32",
          "name": "r",
          "type": "bytes32"
        },
        {
          "internalType": "bytes32",
          "name": "s",
          "type": "bytes32"
        }
      ],
      "name": "permit",
      "outputs": [],
      "stateMutability": "nonpayable",
      "type": "function"
    },
    {
      "inputs": [
        {
          "internalType": "uint256",
          "name": "profit_",
          "type": "uint256"
        },
        {
          "internalType": "uint256",
          "name": "epoch_",
          "type": "uint256"
        }
      ],
      "name": "rebase",
      "outputs": [
        {
          "internalType": "uint256",
          "name": "",
          "type": "uint256"
        }
      ],
      "stateMutability": "nonpayable",
      "type": "function"
    },
    {
      "inputs": [
        {
          "internalType": "uint256",
          "name": "",
          "type": "uint256"
        }
      ],
      "name": "rebases",
      "outputs": [
        {
          "internalType": "uint256",
          "name": "epoch",
          "type": "uint256"
        },
        {
          "internalType": "uint256",
          "name": "rebase",
          "type": "uint256"
        },
        {
          "internalType": "uint256",
          "name": "totalStakedBefore",
          "type": "uint256"
        },
        {
          "internalType": "uint256",
          "name": "totalStakedAfter",
          "type": "uint256"
        },
        {
          "internalType": "uint256",
          "name": "amountRebased",
          "type": "uint256"
        },
        {
          "internalType": "uint256",
          "name": "index",
          "type": "uint256"
        },
        {
          "internalType": "uint256",
          "name": "blockNumberOccured",
          "type": "uint256"
        }
      ],
      "stateMutability": "view",
      "type": "function"
    },
    {
      "inputs": [
        {
          "internalType": "uint256",
          "name": "_index",
          "type": "uint256"
        }
      ],
      "name": "setIndex",
      "outputs": [],
      "stateMutability": "nonpayable",
      "type": "function"
    },
    {
      "inputs": [
        {
          "internalType": "address",
          "name": "_gOHM",
          "type": "address"
        }
      ],
      "name": "setgOHM",
      "outputs": [],
      "stateMutability": "nonpayable",
      "type": "function"
    },
    {
      "inputs": [],
      "name": "stakingContract",
      "outputs": [
        {
          "internalType": "address",
          "name": "",
          "type": "address"
        }
      ],
      "stateMutability": "view",
      "type": "function"
    },
    {
      "inputs": [],
      "name": "symbol",
      "outputs": [
        {
          "internalType": "string",
          "name": "",
          "type": "string"
        }
      ],
      "stateMutability": "view",
      "type": "function"
    },
    {
      "inputs": [
        {
          "internalType": "uint256",
          "name": "amount",
          "type": "uint256"
        }
      ],
      "name": "toG",
      "outputs": [
        {
          "internalType": "uint256",
          "name": "",
          "type": "uint256"
        }
      ],
      "stateMutability": "view",
      "type": "function"
    },
    {
      "inputs": [],
      "name": "totalSupply",
      "outputs": [
        {
          "internalType": "uint256",
          "name": "",
          "type": "uint256"
        }
      ],
      "stateMutability": "view",
      "type": "function"
    },
    {
      "inputs": [
        {
          "internalType": "address",
          "name": "to",
          "type": "address"
        },
        {
          "internalType": "uint256",
          "name": "value",
          "type": "uint256"
        }
      ],
      "name": "transfer",
      "outputs": [
        {
          "internalType": "bool",
          "name": "",
          "type": "bool"
        }
      ],
      "stateMutability": "nonpayable",
      "type": "function"
    },
    {
      "inputs": [
        {
          "internalType": "address",
          "name": "from",
          "type": "address"
        },
        {
          "internalType": "address",
          "name": "to",
          "type": "address"
        },
        {
          "internalType": "uint256",
          "name": "value",
          "type": "uint256"
        }
      ],
      "name": "transferFrom",
      "outputs": [
        {
          "internalType": "bool",
          "name": "",
          "type": "bool"
        }
      ],
      "stateMutability": "nonpayable",
      "type": "function"
    },
    {
      "inputs": [],
      "name": "treasury",
      "outputs": [
        {
          "internalType": "address",
          "name": "",
          "type": "address"
        }
      ],
      "stateMutability": "view",
      "type": "function"
    }
  ],
  "transactionHash": "0xd749ec237e44603caeef66e601bff3db6dd9f8232930f3d6add248448566f14d",
  "args": [],
  "solcInputHash": "7b521b709c6f789745c26b38f5c7a611",
  "bytecode": "0x6101606040527f6e71edae12b1b97f4d1f60370fef10105fa2faae0126114a169c64845d6126c9610140523480156200003757600080fd5b506040518060400160405280600b81526020016a14dd185ad95908149152d560aa1b81525080604051806040016040528060018152602001603160f81b8152506040518060400160405280600b81526020016a14dd185ad95908149152d560aa1b815250604051806040016040528060058152602001641cd49152d560da1b8152508160039080519060200190620000d1929190620001ee565b508051620000e7906004906020840190620001ee565b5050825160208085019190912083518483012060e08290526101008190524660a0818152604080517f8b73c3c69bb8fe3d512ecc4cf759cc79239f7b179b0ffacaa9a75d522b39400f81880181905281830187905260608201869052608082019490945230818401528151808203909301835260c0019052805194019390932091935091906080523060c052610120525050600880546001600160a01b031916331790555050662386f26fc100006007819055620001d09150620001ae81600019620002aa565b620001bc90600019620002c1565b620001d960201b620014641790919060201c565b600d556200033b565b6000620001e78284620002e7565b9392505050565b828054620001fc90620002fe565b90600052602060002090601f0160209004810192826200022057600085556200026b565b82601f106200023b57805160ff19168380011785556200026b565b828001600101855582156200026b579182015b828111156200026b5782518255916020019190600101906200024e565b50620002799291506200027d565b5090565b5b808211156200027957600081556001016200027e565b634e487b7160e01b600052601260045260246000fd5b600082620002bc57620002bc62000294565b500690565b600082821015620002e257634e487b7160e01b600052601160045260246000fd5b500390565b600082620002f957620002f962000294565b500490565b600181811c908216806200031357607f821691505b602082108114156200033557634e487b7160e01b600052602260045260246000fd5b50919050565b60805160a05160c05160e051610100516101205161014051611dd8620003966000396000611354015260006116c701526000611716015260006116f10152600061164a015260006116740152600061169e0152611dd86000f3fe608060405234801561001057600080fd5b50600436106101da5760003560e01c806361d027b311610104578063a457c2d7116100a2578063c4ef1c4c11610071578063c4ef1c4c14610406578063d505accf14610426578063dd62ed3e14610439578063ee99205c1461047257600080fd5b8063a457c2d7146103ba578063a9059cbb146103cd578063ae5c6cd3146103e0578063b8fbd533146103f357600080fd5b80637965d56d116100de5780637965d56d146103845780637ecebe00146103975780639358928b146103aa57806395d89b41146103b257600080fd5b806361d027b31461031657806370a082311461032957806373c69eb71461033c57600080fd5b806323b872dd1161017c5780633644e5151161014b5780633644e515146102d557806339509351146102dd57806340a5737f146102f0578063485cc9551461030357600080fd5b806323b872dd14610296578063245c0e99146102a95780632986c0e5146102be578063313ce567146102c657600080fd5b8063095ea7b3116101b8578063095ea7b31461022d5780630cd305851461025057806318160ddd1461027b5780631bd396741461028357600080fd5b8063058ecdb4146101df57806306fdde0314610205578063095be8181461021a575b600080fd5b6101f26101ed366004611aad565b610485565b6040519081526020015b60405180910390f35b61020d610658565b6040516101fc9190611acf565b6101f2610228366004611b24565b6106ea565b61024061023b366004611b59565b610759565b60405190151581526020016101fc565b600b54610263906001600160a01b031681565b6040516001600160a01b0390911681526020016101fc565b6007546101f2565b6101f2610291366004611b24565b61076f565b6102406102a4366004611b83565b610786565b6102bc6102b7366004611bbf565b610949565b005b6101f2610a90565b604051600981526020016101fc565b6101f2610aa2565b6102406102eb366004611b59565b610aac565b6102bc6102fe366004611b24565b610ae7565b6102bc610311366004611bda565b610bb0565b601054610263906001600160a01b031681565b6101f2610337366004611bbf565b610dcb565b61034f61034a366004611b24565b610df3565b604080519788526020880196909652948601939093526060850191909152608084015260a083015260c082015260e0016101fc565b6101f2610392366004611b24565b610e45565b6101f26103a5366004611bbf565b610e5c565b6101f2610e7a565b61020d610ff4565b6102406103c8366004611b59565b611003565b6102406103db366004611b59565b611058565b6102bc6103ee366004611c0d565b61117b565b6101f2610401366004611b24565b6112ce565b6101f2610414366004611bbf565b60116020526000908152604090205481565b6102bc610434366004611c52565b611300565b6101f2610447366004611bda565b6001600160a01b039182166000908152600f6020908152604080832093909416825291909152205490565b600a54610263906001600160a01b031681565b600a546000906001600160a01b0316331461050d5760405162461bcd60e51b815260206004820152602e60248201527f5374616b696e67436f6e74726163743a202063616c6c206973206e6f7420737460448201527f616b696e6720636f6e747261637400000000000000000000000000000000000060648201526084015b60405180910390fd5b8261059b57817f0417b340e646d4be71f9b2da63b5c3c69bc9cfa069f0e0db4756271886130bf460075460405161054691815260200190565b60405180910390a2817f6012dbce857565c4a40974aa5de8373a761fc429077ef0c8c8611d1e20d63fb2600061057a610a90565b6040805192835260208301919091520160405180910390a250600754610652565b6000806105a6610e7a565b905080156105d4576105cd816105c76007548861147790919063ffffffff16565b90611464565b91506105d8565b8491505b6007546105e59083611483565b60078190556fffffffffffffffffffffffffffffffff1015610616576fffffffffffffffffffffffffffffffff6007555b60075461063c90610630662386f26fc10000600019611cdb565b6105c790600019611d05565b600d5561064a81868661148f565b600754925050505b92915050565b60606003805461066790611d1c565b80601f016020809104026020016040519081016040528092919081815260200182805461069390611d1c565b80156106e05780601f106106b5576101008083540402835291602001916106e0565b820191906000526020600020905b8154815290600101906020018083116106c357829003601f168201915b5050505050905090565b600b546040516319a948db60e21b8152600481018390526000916001600160a01b0316906366a5236c906024015b602060405180830381865afa158015610735573d6000803e3d6000fd5b505050506040513d601f19601f820116820180604052508101906106529190611d51565b60006107663384846115d0565b50600192915050565b6000610652600d548361147790919063ffffffff16565b6001600160a01b0383166000908152600f602090815260408083203384529091528120546107b49083611631565b6001600160a01b0385166000818152600f6020908152604080832033808552908352928190208590555193845290927f8c5be1e5ebec7d5bd14f71427d1e84f3dd0314c0f7b2291e5b200ac8c7c3b925910160405180910390a360006108198361076f565b6001600160a01b0386166000908152600e602052604090205490915061083f9082611631565b6001600160a01b038087166000908152600e6020526040808220939093559086168152205461086e9082611483565b6001600160a01b038086166000908152600e60209081526040808320949094559188168152601190915220546108a386610dcb565b10156108f15760405162461bcd60e51b815260206004820152601c60248201527f446562743a2063616e6e6f74207472616e7366657220616d6f756e74000000006044820152606401610504565b836001600160a01b0316856001600160a01b03167fddf252ad1be2c89b69c2b068fc378daa952ba7f163c4a11628f55a4df523b3ef8560405161093691815260200190565b60405180910390a3506001949350505050565b6008546001600160a01b031633146109b35760405162461bcd60e51b815260206004820152602760248201527f496e697469616c697a65723a202063616c6c6572206973206e6f7420696e697460448201526634b0b634bd32b960c91b6064820152608401610504565b600b546001600160a01b031615610a0c5760405162461bcd60e51b815260206004820152601760248201527f674f484d3a2020674f484d20616c7265616479207365740000000000000000006044820152606401610504565b6001600160a01b038116610a6e5760405162461bcd60e51b815260206004820152602360248201527f674f484d3a2020674f484d206973206e6f7420612076616c696420636f6e74726044820152621858dd60ea1b6064820152608401610504565b600b80546001600160a01b0319166001600160a01b0392909216919091179055565b6000610a9d600954610e45565b905090565b6000610a9d61163d565b336000818152600f602090815260408083206001600160a01b03871684529091528120549091610766918590610ae29086611483565b6115d0565b6008546001600160a01b03163314610b515760405162461bcd60e51b815260206004820152602760248201527f496e697469616c697a65723a202063616c6c6572206973206e6f7420696e697460448201526634b0b634bd32b960c91b6064820152608401610504565b60095415610ba15760405162461bcd60e51b815260206004820152601660248201527f43616e6e6f742073657420494e44455820616761696e000000000000000000006044820152606401610504565b610baa8161076f565b60095550565b6008546001600160a01b03163314610c1a5760405162461bcd60e51b815260206004820152602760248201527f496e697469616c697a65723a202063616c6c6572206973206e6f7420696e697460448201526634b0b634bd32b960c91b6064820152608401610504565b6001600160a01b038216610c705760405162461bcd60e51b815260206004820152600760248201527f5374616b696e67000000000000000000000000000000000000000000000000006044820152606401610504565b600a80546001600160a01b0319166001600160a01b038416179055610c9e662386f26fc10000600019611cdb565b610caa90600019611d05565b600a546001600160a01b039081166000908152600e60205260409020919091558116610d185760405162461bcd60e51b815260206004820152601660248201527f5a65726f20616464726573733a205472656173757279000000000000000000006044820152606401610504565b601080546001600160a01b0319166001600160a01b0383811691909117909155600a546007546040519081529116906000907fddf252ad1be2c89b69c2b068fc378daa952ba7f163c4a11628f55a4df523b3ef9060200160405180910390a3600a546040516001600160a01b0390911681527f817c653428858ed536dc085c5d8273734c517b55de44b55f5c5877a75e3373a19060200160405180910390a15050600880546001600160a01b0319169055565b600d546001600160a01b0382166000908152600e602052604081205490916106529190611464565b600c8181548110610e0357600080fd5b90600052602060002090600702016000915090508060000154908060010154908060020154908060030154908060040154908060050154908060060154905087565b6000610652600d548361146490919063ffffffff16565b6001600160a01b038116600090815260056020526040812054610652565b6000610a9d600a60009054906101000a90046001600160a01b03166001600160a01b031663201386416040518163ffffffff1660e01b8152600401602060405180830381865afa158015610ed2573d6000803e3d6000fd5b505050506040513d601f19601f82011682018060405250810190610ef69190611d51565b600b54604080516318160ddd60e01b81529051610fee926001600160a01b03169163a82487689183916318160ddd9160048083019260209291908290030181865afa158015610f49573d6000803e3d6000fd5b505050506040513d601f19601f82011682018060405250810190610f6d9190611d51565b6040518263ffffffff1660e01b8152600401610f8b91815260200190565b602060405180830381865afa158015610fa8573d6000803e3d6000fd5b505050506040513d601f19601f82011682018060405250810190610fcc9190611d51565b600a54610fee90610fe5906001600160a01b0316610dcb565b60075490611631565b90611483565b60606004805461066790611d1c565b336000908152600f602090815260408083206001600160a01b038616845290915281205480831061103f5761103a338560006115d0565b61104e565b61104e3385610ae28487611631565b5060019392505050565b6000806110648361076f565b336000908152600e60205260409020549091506110819082611631565b336000908152600e6020526040808220929092556001600160a01b038616815220546110ad9082611483565b6001600160a01b0385166000908152600e602090815260408083209390935533808352601190915291902054906110e390610dcb565b10156111315760405162461bcd60e51b815260206004820152601c60248201527f446562743a2063616e6e6f74207472616e7366657220616d6f756e74000000006044820152606401610504565b6040518381526001600160a01b0385169033907fddf252ad1be2c89b69c2b068fc378daa952ba7f163c4a11628f55a4df523b3ef9060200160405180910390a35060019392505050565b6010546001600160a01b031633146111d55760405162461bcd60e51b815260206004820152600d60248201527f4f6e6c79207472656173757279000000000000000000000000000000000000006044820152606401610504565b801561121c576001600160a01b0382166000908152601160205260409020546111fe9084611483565b6001600160a01b038316600090815260116020526040902055611259565b6001600160a01b03821660009081526011602052604090205461123f9084611631565b6001600160a01b0383166000908152601160205260409020555b61126282610dcb565b6001600160a01b03831660009081526011602052604090205411156112c95760405162461bcd60e51b815260206004820152601a60248201527f734f484d3a20696e73756666696369656e742062616c616e63650000000000006044820152606401610504565b505050565b600b5460405163150490ed60e31b8152600481018390526000916001600160a01b03169063a824876890602401610718565b834211156113505760405162461bcd60e51b815260206004820152601d60248201527f45524332305065726d69743a206578706972656420646561646c696e650000006044820152606401610504565b60007f000000000000000000000000000000000000000000000000000000000000000088888861137f8c611764565b6040805160208101969096526001600160a01b0394851690860152929091166060840152608083015260a082015260c0810186905260e00160405160208183030381529060405280519060200120905060006113da8261178c565b905060006113ea828787876117da565b9050896001600160a01b0316816001600160a01b03161461144d5760405162461bcd60e51b815260206004820152601e60248201527f45524332305065726d69743a20696e76616c6964207369676e617475726500006044820152606401610504565b6114588a8a8a6115d0565b50505050505050505050565b60006114708284611d6a565b9392505050565b60006114708284611d7e565b60006114708284611d9d565b60006114a7846105c785670de0b6b3a7640000611477565b9050600c6040518060e001604052808481526020018381526020018681526020016114d0610e7a565b81526020018581526020016114e3610a90565b8152436020918201528254600181810185556000948552938290208351600792830290910190815591830151938201939093556040808301516002830155606083015160038301556080830151600483015560a0830151600583015560c0909201516006909101559054905183917f0417b340e646d4be71f9b2da63b5c3c69bc9cfa069f0e0db4756271886130bf49161157f91815260200190565b60405180910390a2817f6012dbce857565c4a40974aa5de8373a761fc429077ef0c8c8611d1e20d63fb2826115b2610a90565b6040805192835260208301919091520160405180910390a250505050565b6001600160a01b038381166000818152600f602090815260408083209487168084529482529182902085905590518481527f8c5be1e5ebec7d5bd14f71427d1e84f3dd0314c0f7b2291e5b200ac8c7c3b925910160405180910390a3505050565b60006114708284611d05565b6000306001600160a01b037f00000000000000000000000000000000000000000000000000000000000000001614801561169657507f000000000000000000000000000000000000000000000000000000000000000046145b156116c057507f000000000000000000000000000000000000000000000000000000000000000090565b50604080517f00000000000000000000000000000000000000000000000000000000000000006020808301919091527f0000000000000000000000000000000000000000000000000000000000000000828401527f000000000000000000000000000000000000000000000000000000000000000060608301524660808301523060a0808401919091528351808403909101815260c0909201909252805191012090565b6001600160a01b03811660009081526005602052604090208054600181018255905b50919050565b600061065261179961163d565b8360405161190160f01b6020820152602281018390526042810182905260009060620160405160208183030381529060405280519060200120905092915050565b60008060006117eb87878787611802565b915091506117f8816118ef565b5095945050505050565b6000807f7fffffffffffffffffffffffffffffff5d576e7357a4501ddfe92f46681b20a083111561183957506000905060036118e6565b8460ff16601b1415801561185157508460ff16601c14155b1561186257506000905060046118e6565b6040805160008082526020820180845289905260ff881692820192909252606081018690526080810185905260019060a0016020604051602081039080840390855afa1580156118b6573d6000803e3d6000fd5b5050604051601f1901519150506001600160a01b0381166118df576000600192509250506118e6565b9150600090505b94509492505050565b600081600481111561190357611903611db5565b141561190c5750565b600181600481111561192057611920611db5565b141561196e5760405162461bcd60e51b815260206004820152601860248201527f45434453413a20696e76616c6964207369676e617475726500000000000000006044820152606401610504565b600281600481111561198257611982611db5565b14156119d05760405162461bcd60e51b815260206004820152601f60248201527f45434453413a20696e76616c6964207369676e6174757265206c656e677468006044820152606401610504565b60038160048111156119e4576119e4611db5565b1415611a3d5760405162461bcd60e51b815260206004820152602260248201527f45434453413a20696e76616c6964207369676e6174757265202773272076616c604482015261756560f01b6064820152608401610504565b6004816004811115611a5157611a51611db5565b1415611aaa5760405162461bcd60e51b815260206004820152602260248201527f45434453413a20696e76616c6964207369676e6174757265202776272076616c604482015261756560f01b6064820152608401610504565b50565b60008060408385031215611ac057600080fd5b50508035926020909101359150565b600060208083528351808285015260005b81811015611afc57858101830151858201604001528201611ae0565b81811115611b0e576000604083870101525b50601f01601f1916929092016040019392505050565b600060208284031215611b3657600080fd5b5035919050565b80356001600160a01b0381168114611b5457600080fd5b919050565b60008060408385031215611b6c57600080fd5b611b7583611b3d565b946020939093013593505050565b600080600060608486031215611b9857600080fd5b611ba184611b3d565b9250611baf60208501611b3d565b9150604084013590509250925092565b600060208284031215611bd157600080fd5b61147082611b3d565b60008060408385031215611bed57600080fd5b611bf683611b3d565b9150611c0460208401611b3d565b90509250929050565b600080600060608486031215611c2257600080fd5b83359250611c3260208501611b3d565b915060408401358015158114611c4757600080fd5b809150509250925092565b600080600080600080600060e0888a031215611c6d57600080fd5b611c7688611b3d565b9650611c8460208901611b3d565b95506040880135945060608801359350608088013560ff81168114611ca857600080fd5b9699959850939692959460a0840135945060c09093013592915050565b634e487b7160e01b600052601260045260246000fd5b600082611cea57611cea611cc5565b500690565b634e487b7160e01b600052601160045260246000fd5b600082821015611d1757611d17611cef565b500390565b600181811c90821680611d3057607f821691505b6020821081141561178657634e487b7160e01b600052602260045260246000fd5b600060208284031215611d6357600080fd5b5051919050565b600082611d7957611d79611cc5565b500490565b6000816000190483118215151615611d9857611d98611cef565b500290565b60008219821115611db057611db0611cef565b500190565b634e487b7160e01b600052602160045260246000fdfea164736f6c634300080a000a",
  "devdoc": {
    "kind": "dev",
    "methods": {
      "DOMAIN_SEPARATOR()": {
        "details": "See {IERC20Permit-DOMAIN_SEPARATOR}."
      },
      "decimals()": {
        "details": "Returns the number of decimals used to get its user representation. For example, if `decimals` equals `2`, a balance of `505` tokens should be displayed to a user as `5.05` (`505 / 10 ** 2`). Tokens usually opt for a value of 18, imitating the relationship between Ether and Wei. This is the value {ERC20} uses, unless this function is overridden; NOTE: This information is only used for _display_ purposes: it in no way affects any of the arithmetic of the contract, including {IERC20-balanceOf} and {IERC20-transfer}."
      },
      "decreaseAllowance(address,uint256)": {
        "details": "Atomically decreases the allowance granted to `spender` by the caller. This is an alternative to {approve} that can be used as a mitigation for problems described in {IERC20-approve}. Emits an {Approval} event indicating the updated allowance. Requirements: - `spender` cannot be the zero address. - `spender` must have allowance for the caller of at least `subtractedValue`."
      },
      "increaseAllowance(address,uint256)": {
        "details": "Atomically increases the allowance granted to `spender` by the caller. This is an alternative to {approve} that can be used as a mitigation for problems described in {IERC20-approve}. Emits an {Approval} event indicating the updated allowance. Requirements: - `spender` cannot be the zero address."
      },
      "name()": {
        "details": "Returns the name of the token."
      },
      "nonces(address)": {
        "details": "See {IERC20Permit-nonces}."
      },
      "permit(address,address,uint256,uint256,uint8,bytes32,bytes32)": {
        "details": "See {IERC20Permit-permit}."
      },
      "rebase(uint256,uint256)": {
        "params": {
          "profit_": "uint256"
        },
        "returns": {
          "_0": "uint256"
        }
      },
      "symbol()": {
        "details": "Returns the symbol of the token, usually a shorter version of the name."
      },
      "totalSupply()": {
        "details": "See {IERC20-totalSupply}."
      }
    },
    "version": 1
  },
  "userdoc": {
    "kind": "user",
    "methods": {
      "rebase(uint256,uint256)": {
        "notice": "increases rOHM supply to increase staking balances relative to profit_"
      }
    },
    "version": 1
  },
  "storageLayout": {
    "storage": [
      {
        "astId": 1736,
        "contract": "contracts/OpenSOHM.sol:OpenSOHM",
        "label": "_balances",
        "offset": 0,
        "slot": "0",
        "type": "t_mapping(t_address,t_uint256)"
      },
      {
        "astId": 1742,
        "contract": "contracts/OpenSOHM.sol:OpenSOHM",
        "label": "_allowances",
        "offset": 0,
        "slot": "1",
        "type": "t_mapping(t_address,t_mapping(t_address,t_uint256))"
      },
      {
        "astId": 1744,
        "contract": "contracts/OpenSOHM.sol:OpenSOHM",
        "label": "_totalSupply",
        "offset": 0,
        "slot": "2",
        "type": "t_uint256"
      },
      {
        "astId": 1746,
        "contract": "contracts/OpenSOHM.sol:OpenSOHM",
        "label": "_name",
        "offset": 0,
        "slot": "3",
        "type": "t_string_storage"
      },
      {
        "astId": 1748,
        "contract": "contracts/OpenSOHM.sol:OpenSOHM",
        "label": "_symbol",
        "offset": 0,
        "slot": "4",
        "type": "t_string_storage"
      },
      {
        "astId": 3071,
        "contract": "contracts/OpenSOHM.sol:OpenSOHM",
        "label": "_nonces",
        "offset": 0,
        "slot": "5",
        "type": "t_mapping(t_address,t_struct(Counter)3800_storage)"
      },
      {
        "astId": 7491,
        "contract": "contracts/OpenSOHM.sol:OpenSOHM",
        "label": "_balances",
        "offset": 0,
        "slot": "6",
        "type": "t_mapping(t_address,t_uint256)"
      },
      {
        "astId": 7493,
        "contract": "contracts/OpenSOHM.sol:OpenSOHM",
        "label": "_totalSupply",
        "offset": 0,
        "slot": "7",
        "type": "t_uint256"
      },
      {
        "astId": 7495,
        "contract": "contracts/OpenSOHM.sol:OpenSOHM",
        "label": "initializer",
        "offset": 0,
        "slot": "8",
        "type": "t_address"
      },
      {
        "astId": 7497,
        "contract": "contracts/OpenSOHM.sol:OpenSOHM",
        "label": "INDEX",
        "offset": 0,
        "slot": "9",
        "type": "t_uint256"
      },
      {
        "astId": 7499,
        "contract": "contracts/OpenSOHM.sol:OpenSOHM",
        "label": "stakingContract",
        "offset": 0,
        "slot": "10",
        "type": "t_address"
      },
      {
        "astId": 7502,
        "contract": "contracts/OpenSOHM.sol:OpenSOHM",
        "label": "gOHM",
        "offset": 0,
        "slot": "11",
        "type": "t_contract(IOpenGOHM)15814"
      },
      {
        "astId": 7506,
        "contract": "contracts/OpenSOHM.sol:OpenSOHM",
        "label": "rebases",
        "offset": 0,
        "slot": "12",
        "type": "t_array(t_struct(Rebase)7487_storage)dyn_storage"
      },
      {
        "astId": 7537,
        "contract": "contracts/OpenSOHM.sol:OpenSOHM",
        "label": "_gonsPerFragment",
        "offset": 0,
        "slot": "13",
        "type": "t_uint256"
      },
      {
        "astId": 7541,
        "contract": "contracts/OpenSOHM.sol:OpenSOHM",
        "label": "_gonBalances",
        "offset": 0,
        "slot": "14",
        "type": "t_mapping(t_address,t_uint256)"
      },
      {
        "astId": 7547,
        "contract": "contracts/OpenSOHM.sol:OpenSOHM",
        "label": "_allowedValue",
        "offset": 0,
        "slot": "15",
        "type": "t_mapping(t_address,t_mapping(t_address,t_uint256))"
      },
      {
        "astId": 7549,
        "contract": "contracts/OpenSOHM.sol:OpenSOHM",
        "label": "treasury",
        "offset": 0,
        "slot": "16",
        "type": "t_address"
      },
      {
        "astId": 7554,
        "contract": "contracts/OpenSOHM.sol:OpenSOHM",
        "label": "debtBalances",
        "offset": 0,
        "slot": "17",
        "type": "t_mapping(t_address,t_uint256)"
      }
    ],
    "types": {
      "t_address": {
        "encoding": "inplace",
        "label": "address",
        "numberOfBytes": "20"
      },
      "t_array(t_struct(Rebase)7487_storage)dyn_storage": {
        "base": "t_struct(Rebase)7487_storage",
        "encoding": "dynamic_array",
        "label": "struct OpenSOHM.Rebase[]",
        "numberOfBytes": "32"
      },
      "t_contract(IOpenGOHM)15814": {
        "encoding": "inplace",
        "label": "contract IOpenGOHM",
        "numberOfBytes": "20"
      },
      "t_mapping(t_address,t_mapping(t_address,t_uint256))": {
        "encoding": "mapping",
        "key": "t_address",
        "label": "mapping(address => mapping(address => uint256))",
        "numberOfBytes": "32",
        "value": "t_mapping(t_address,t_uint256)"
      },
      "t_mapping(t_address,t_struct(Counter)3800_storage)": {
        "encoding": "mapping",
        "key": "t_address",
        "label": "mapping(address => struct Counters.Counter)",
        "numberOfBytes": "32",
        "value": "t_struct(Counter)3800_storage"
      },
      "t_mapping(t_address,t_uint256)": {
        "encoding": "mapping",
        "key": "t_address",
        "label": "mapping(address => uint256)",
        "numberOfBytes": "32",
        "value": "t_uint256"
      },
      "t_string_storage": {
        "encoding": "bytes",
        "label": "string",
        "numberOfBytes": "32"
      },
      "t_struct(Counter)3800_storage": {
        "encoding": "inplace",
        "label": "struct Counters.Counter",
        "members": [
          {
            "astId": 3799,
            "contract": "contracts/OpenSOHM.sol:OpenSOHM",
            "label": "_value",
            "offset": 0,
            "slot": "0",
            "type": "t_uint256"
          }
        ],
        "numberOfBytes": "32"
      },
      "t_struct(Rebase)7487_storage": {
        "encoding": "inplace",
        "label": "struct OpenSOHM.Rebase",
        "members": [
          {
            "astId": 7474,
            "contract": "contracts/OpenSOHM.sol:OpenSOHM",
            "label": "epoch",
            "offset": 0,
            "slot": "0",
            "type": "t_uint256"
          },
          {
            "astId": 7476,
            "contract": "contracts/OpenSOHM.sol:OpenSOHM",
            "label": "rebase",
            "offset": 0,
            "slot": "1",
            "type": "t_uint256"
          },
          {
            "astId": 7478,
            "contract": "contracts/OpenSOHM.sol:OpenSOHM",
            "label": "totalStakedBefore",
            "offset": 0,
            "slot": "2",
            "type": "t_uint256"
          },
          {
            "astId": 7480,
            "contract": "contracts/OpenSOHM.sol:OpenSOHM",
            "label": "totalStakedAfter",
            "offset": 0,
            "slot": "3",
            "type": "t_uint256"
          },
          {
            "astId": 7482,
            "contract": "contracts/OpenSOHM.sol:OpenSOHM",
            "label": "amountRebased",
            "offset": 0,
            "slot": "4",
            "type": "t_uint256"
          },
          {
            "astId": 7484,
            "contract": "contracts/OpenSOHM.sol:OpenSOHM",
            "label": "index",
            "offset": 0,
            "slot": "5",
            "type": "t_uint256"
          },
          {
            "astId": 7486,
            "contract": "contracts/OpenSOHM.sol:OpenSOHM",
            "label": "blockNumberOccured",
            "offset": 0,
            "slot": "6",
            "type": "t_uint256"
          }
        ],
        "numberOfBytes": "224"
      },
      "t_uint256": {
        "encoding": "inplace",
        "label": "uint256",
        "numberOfBytes": "32"
      }
    }
  }
}